:02000000E229F3
:0400060000000800EE
:10000A00083083120313FC002330FD00FD0B0B287C
:06001A00FC0B0B2808009E
:10002000103083120313FD00FD0B1428000008009C
:1000300083160313B41B1F288312861221288312F0
:1000400086168316341B272883120612292883124A
:1000500006168316B41A2F288312861131288312AC
:1000600086158316341A372883120611392883120D
:1000700006156D183D2806143E2806108614032028
:1000800086108316B41947288312861249288312D2
:100090008616831634194F288312061251288312AC
:1000A00006168316B418572883128611592883120E
:1000B0008615831634185F2883120611612883126F
:1000C00006156D1865280614662806108614032088
:0E00D00086106D1C6D2805206E28102008007B
:0E00DE00831203136A088A0069088200080072
:0E00EC00033083120313FD00FD0B7A28080079
:1000FA0083120313EF018316B101B2011030B3006A
:10010A00043032020318B728F03083128800803096
:10011A00F0007008083E840083163309F000700866
:10012A008000032003200F3083120805F0007008B6
:10013A008316B00070080319B12831088312EF0042
:10014A00831630080319AE28B00CB0138312EF0AD5
:10015A00A52804308316B200B30D33100430B1075A
:0C016A00B20A852883126F08F00008001C
:10017600831203136D106F088316B40018206D14D4
:0201860008006F
:10018800D628803083160313AD00E928C030AD00AF
:10019800E9289430AD00E928D430AD00E928803052
:1001A800AD00E928831603132D08013A0319C52861
:1001B8002D08023A0319CA282D08033A0319CD2835
:1001C8002D08043A0319D028D3282E03F0002D084F
:1001D800F0077008AD0083126D1470088316B40020
:1001E80018206D1083162F08B40018206D1408000D
:1001F8001829831203136B08313A031D0429EC0AEA
:100208002B296B08323A031D0A29EC0A2B296B08A3
:10021800333A031D1029EC0A2B296B08343A031DC5
:100228001629EC0A2B292B29831203136808013A93
:100238000319FD286808023A031905296808033AD2
:1002480003190B296808043A03191129172908000A
:10025800803083120313F0007008083E8400FF30DA
:04026800800008000A
:10026C004829803083160313AD005B29C030AD00E4
:10027C005B299430AD005B29D430AD005B29803014
:10028C00AD005B29831603132D08013A0319372996
:10029C002D08023A03193C292D08033A03193F296A
:1002AC002D08043A0319422945292E03F0002D0884
:1002BC00F0077008AD007008B40018206D10EE0146
:1002CC006E0883162F0784000008031978298312FF
:1002DC006E0883162F07840000088312EF00BB20E2
:0A02EC00EE0A662983126D14080063
:1002F600831603138610061006118611061286123F
:100306008312861006108612061286110611052023
:10031600052005208615061586140320861005205F
:1003260086140320861005208614032086100520D7
:1003360006118614032086100520861403208610D5
:100346008611861686140320861005208612061549
:1003560086140320861006118614032086100520B5
:1003660086140320861006158614032086100520A1
:10037600061186140320861086160616861506159F
:0C03860086140320861005206D1408006A
:100392006F208A110A128000840AE90A0319EA0A04
:0803A200F003031DC929080046
:1003AA007D207008EE000F300805F0000319DF29E0
:0A03BA007620D8296E08F000080034
:1003C40042237B210C308316B4001820013083169D
:1003D400B400182001308316AD000130AE0059304E
:1003E400AF00362102308316AD000130AE00A030DC
:1003F400AF0036210630FB001330FC00AD30FD00A9
:10040400FD0B022AFC0B022AFB0B022A000000004F
:1004140001308316B40018200330FB008A30FC003E
:100424005530FD00FD0B142AFC0B142AFB0B142A77
:100434000000000001308316B40018200130831638
:10044400AD000130AE002030AF0036210330FB0098
:100454008A30FC005530FD00FD0B2E2AFC0B2E2AA1
:10046400FB0B2E2A0000000001308316B400182074
:1004740001308316AD000130AE002C30AF003621C0
:100484002C21831686018312EB01D5217008EB0021
:1004940070080319472A722A3130EB00A22A32303D
:1004A400EB00A22A3330EB00A22A3430EB00A22A5C
:1004B4003530EB00A22A3630EB00A22A3730EB00AD
:1004C400A22A3830EB00A22A3930EB00A22A2A30C3
:1004D400EB00A22A3030EB00A22A2330EB00A22A40
:1004E4006B08013A03194E2A6B08023A0319512A80
:1004F4006B08033A0319542A6B08053A0319572A5F
:100504006B08063A03195A2A6B08073A03195D2A3D
:100514006B08093A0319602A6B080A3A0319632A1B
:100524006B080B3A0319662A6B080D3A0319692AFA
:100534006B080E3A03196C2A6B080F3A03196F2AD9
:10054400E80A02308316AD00831268088316AE00F1
:100554002A30AF00C420FC206B08233A031DE62A8E
:100564006C08043A031DC82A6808053A031DC82A02
:1005740001308316B400182001308316AD00013019
:10058400AE004B30AF0036218617D42A01308316D3
:10059400B400182001308316AD000130AE003C30A9
:1005A400AF0036210B30FB002630FC005D30FD002F
:1005B400FD0BDA2AFC0BDA2AFB0BDA2A0000000016
:0C05C4008613E801EC011C2A452AE72AF6
:1006840020308400483083120313F000ED30E90079
:100694000230EA00C921A03084000D308312F0003A
:0C06A4003530E9000330EA00C9210800ED
:1005DA0044346F346F34723420344C346F3463349F
:0805EA006B3465346434003405
:1005F20045346E347434653472342034703461346A
:100602007334733477346F34723464343A3400346C
:10061200573472346F346E3467342034503461345A
:0E0622007334733477346F34723464340034BC
:1006300044346F346F347234203475346E346C3417
:0C0640006F3463346B3465346434003470
:10064C0045346E347434653472342034703461340F
:0E065C007334733477346F3472346434003482
:10066A0074346F3420346F34703465346E3420340B
:0A067A0064346F346F3472340034BE
:02400E007A3BFB
:00000001FF
